{
  "_format": "hh-sol-artifact-1",
  "contractName": "FundMyScience",
  "sourceName": "contracts/FundMyScience.sol",
  "abi": [
    {
      "inputs": [
        {
          "internalType": "address",
          "name": "_platformWallet",
          "type": "address"
        }
      ],
      "stateMutability": "nonpayable",
      "type": "constructor"
    },
    {
      "anonymous": false,
      "inputs": [
        {
          "indexed": true,
          "internalType": "uint256",
          "name": "projectId",
          "type": "uint256"
        },
        {
          "indexed": false,
          "internalType": "uint256",
          "name": "milestoneIndex",
          "type": "uint256"
        },
        {
          "indexed": false,
          "internalType": "address",
          "name": "researcher",
          "type": "address"
        },
        {
          "indexed": false,
          "internalType": "uint256",
          "name": "amount",
          "type": "uint256"
        }
      ],
      "name": "FundsReleased",
      "type": "event"
    },
    {
      "anonymous": false,
      "inputs": [
        {
          "indexed": true,
          "internalType": "uint256",
          "name": "projectId",
          "type": "uint256"
        },
        {
          "indexed": true,
          "internalType": "address",
          "name": "investor",
          "type": "address"
        },
        {
          "indexed": false,
          "internalType": "uint256",
          "name": "amount",
          "type": "uint256"
        }
      ],
      "name": "InvestmentMade",
      "type": "event"
    },
    {
      "anonymous": false,
      "inputs": [
        {
          "indexed": true,
          "internalType": "uint256",
          "name": "projectId",
          "type": "uint256"
        },
        {
          "indexed": false,
          "internalType": "uint256",
          "name": "milestoneIndex",
          "type": "uint256"
        },
        {
          "indexed": false,
          "internalType": "uint256",
          "name": "amount",
          "type": "uint256"
        }
      ],
      "name": "MilestoneApproved",
      "type": "event"
    },
    {
      "anonymous": false,
      "inputs": [
        {
          "indexed": true,
          "internalType": "uint256",
          "name": "projectId",
          "type": "uint256"
        },
        {
          "indexed": false,
          "internalType": "uint256",
          "name": "milestoneIndex",
          "type": "uint256"
        },
        {
          "indexed": false,
          "internalType": "string",
          "name": "evidenceHash",
          "type": "string"
        }
      ],
      "name": "MilestoneCompleted",
      "type": "event"
    },
    {
      "anonymous": false,
      "inputs": [
        {
          "indexed": true,
          "internalType": "address",
          "name": "previousOwner",
          "type": "address"
        },
        {
          "indexed": true,
          "internalType": "address",
          "name": "newOwner",
          "type": "address"
        }
      ],
      "name": "OwnershipTransferred",
      "type": "event"
    },
    {
      "anonymous": false,
      "inputs": [
        {
          "indexed": false,
          "internalType": "address",
          "name": "account",
          "type": "address"
        }
      ],
      "name": "Paused",
      "type": "event"
    },
    {
      "anonymous": false,
      "inputs": [
        {
          "indexed": true,
          "internalType": "uint256",
          "name": "projectId",
          "type": "uint256"
        },
        {
          "indexed": true,
          "internalType": "address",
          "name": "researcher",
          "type": "address"
        },
        {
          "indexed": false,
          "internalType": "string",
          "name": "title",
          "type": "string"
        },
        {
          "indexed": false,
          "internalType": "uint256",
          "name": "fundingGoal",
          "type": "uint256"
        }
      ],
      "name": "ProjectCreated",
      "type": "event"
    },
    {
      "anonymous": false,
      "inputs": [
        {
          "indexed": true,
          "internalType": "uint256",
          "name": "projectId",
          "type": "uint256"
        },
        {
          "indexed": false,
          "internalType": "enum FundMyScience.ProjectStatus",
          "name": "newStatus",
          "type": "uint8"
        }
      ],
      "name": "ProjectStatusChanged",
      "type": "event"
    },
    {
      "anonymous": false,
      "inputs": [
        {
          "indexed": false,
          "internalType": "address",
          "name": "account",
          "type": "address"
        }
      ],
      "name": "Unpaused",
      "type": "event"
    },
    {
      "inputs": [
        {
          "internalType": "uint256",
          "name": "projectId",
          "type": "uint256"
        },
        {
          "internalType": "uint256",
          "name": "milestoneIndex",
          "type": "uint256"
        }
      ],
      "name": "approveMilestone",
      "outputs": [],
      "stateMutability": "nonpayable",
      "type": "function"
    },
    {
      "inputs": [
        {
          "internalType": "string",
          "name": "_title",
          "type": "string"
        },
        {
          "internalType": "string",
          "name": "_ipfsHash",
          "type": "string"
        },
        {
          "internalType": "uint256",
          "name": "_fundingGoal",
          "type": "uint256"
        },
        {
          "internalType": "string[]",
          "name": "_milestoneDescriptions",
          "type": "string[]"
        },
        {
          "internalType": "uint256[]",
          "name": "_milestoneFunding",
          "type": "uint256[]"
        },
        {
          "internalType": "uint256[]",
          "name": "_milestoneTargets",
          "type": "uint256[]"
        }
      ],
      "name": "createProject",
      "outputs": [
        {
          "internalType": "uint256",
          "name": "",
          "type": "uint256"
        }
      ],
      "stateMutability": "nonpayable",
      "type": "function"
    },
    {
      "inputs": [],
      "name": "emergencyWithdraw",
      "outputs": [],
      "stateMutability": "nonpayable",
      "type": "function"
    },
    {
      "inputs": [
        {
          "internalType": "uint256",
          "name": "projectId",
          "type": "uint256"
        }
      ],
      "name": "getProject",
      "outputs": [
        {
          "internalType": "uint256",
          "name": "id",
          "type": "uint256"
        },
        {
          "internalType": "address",
          "name": "researcher",
          "type": "address"
        },
        {
          "internalType": "string",
          "name": "title",
          "type": "string"
        },
        {
          "internalType": "string",
          "name": "ipfsHash",
          "type": "string"
        },
        {
          "internalType": "uint256",
          "name": "fundingGoal",
          "type": "uint256"
        },
        {
          "internalType": "uint256",
          "name": "fundsRaised",
          "type": "uint256"
        },
        {
          "internalType": "uint256",
          "name": "milestoneCount",
          "type": "uint256"
        },
        {
          "internalType": "enum FundMyScience.ProjectStatus",
          "name": "status",
          "type": "uint8"
        },
        {
          "internalType": "uint256",
          "name": "createdAt",
          "type": "uint256"
        }
      ],
      "stateMutability": "view",
      "type": "function"
    },
    {
      "inputs": [
        {
          "internalType": "uint256",
          "name": "projectId",
          "type": "uint256"
        }
      ],
      "name": "getProjectInvestments",
      "outputs": [
        {
          "components": [
            {
              "internalType": "address",
              "name": "investor",
              "type": "address"
            },
            {
              "internalType": "uint256",
              "name": "projectId",
              "type": "uint256"
            },
            {
              "internalType": "uint256",
              "name": "amount",
              "type": "uint256"
            },
            {
              "internalType": "uint256",
              "name": "timestamp",
              "type": "uint256"
            }
          ],
          "internalType": "struct FundMyScience.Investment[]",
          "name": "",
          "type": "tuple[]"
        }
      ],
      "stateMutability": "view",
      "type": "function"
    },
    {
      "inputs": [
        {
          "internalType": "uint256",
          "name": "projectId",
          "type": "uint256"
        }
      ],
      "name": "getProjectMilestones",
      "outputs": [
        {
          "components": [
            {
              "internalType": "uint256",
              "name": "projectId",
              "type": "uint256"
            },
            {
              "internalType": "uint256",
              "name": "milestoneIndex",
              "type": "uint256"
            },
            {
              "internalType": "string",
              "name": "description",
              "type": "string"
            },
            {
              "internalType": "uint256",
              "name": "fundingAmount",
              "type": "uint256"
            },
            {
              "internalType": "uint256",
              "name": "targetDate",
              "type": "uint256"
            },
            {
              "internalType": "enum FundMyScience.MilestoneStatus",
              "name": "status",
              "type": "uint8"
            },
            {
              "internalType": "string",
              "name": "evidenceHash",
              "type": "string"
            },
            {
              "internalType": "uint256",
              "name": "approvedAt",
              "type": "uint256"
            }
          ],
          "internalType": "struct FundMyScience.Milestone[]",
          "name": "",
          "type": "tuple[]"
        }
      ],
      "stateMutability": "view",
      "type": "function"
    },
    {
      "inputs": [
        {
          "internalType": "address",
          "name": "user",
          "type": "address"
        }
      ],
      "name": "getUserInvestments",
      "outputs": [
        {
          "internalType": "uint256[]",
          "name": "",
          "type": "uint256[]"
        }
      ],
      "stateMutability": "view",
      "type": "function"
    },
    {
      "inputs": [
        {
          "internalType": "address",
          "name": "user",
          "type": "address"
        }
      ],
      "name": "getUserProjects",
      "outputs": [
        {
          "internalType": "uint256[]",
          "name": "",
          "type": "uint256[]"
        }
      ],
      "stateMutability": "view",
      "type": "function"
    },
    {
      "inputs": [
        {
          "internalType": "uint256",
          "name": "projectId",
          "type": "uint256"
        }
      ],
      "name": "investInProject",
      "outputs": [],
      "stateMutability": "payable",
      "type": "function"
    },
    {
      "inputs": [],
      "name": "nextProjectId",
      "outputs": [
        {
          "internalType": "uint256",
          "name": "",
          "type": "uint256"
        }
      ],
      "stateMutability": "view",
      "type": "function"
    },
    {
      "inputs": [],
      "name": "owner",
      "outputs": [
        {
          "internalType": "address",
          "name": "",
          "type": "address"
        }
      ],
      "stateMutability": "view",
      "type": "function"
    },
    {
      "inputs": [],
      "name": "pause",
      "outputs": [],
      "stateMutability": "nonpayable",
      "type": "function"
    },
    {
      "inputs": [],
      "name": "paused",
      "outputs": [
        {
          "internalType": "bool",
          "name": "",
          "type": "bool"
        }
      ],
      "stateMutability": "view",
      "type": "function"
    },
    {
      "inputs": [],
      "name": "platformFeePercentage",
      "outputs": [
        {
          "internalType": "uint256",
          "name": "",
          "type": "uint256"
        }
      ],
      "stateMutability": "view",
      "type": "function"
    },
    {
      "inputs": [],
      "name": "platformWallet",
      "outputs": [
        {
          "internalType": "address",
          "name": "",
          "type": "address"
        }
      ],
      "stateMutability": "view",
      "type": "function"
    },
    {
      "inputs": [
        {
          "internalType": "uint256",
          "name": "",
          "type": "uint256"
        },
        {
          "internalType": "uint256",
          "name": "",
          "type": "uint256"
        }
      ],
      "name": "projectInvestments",
      "outputs": [
        {
          "internalType": "address",
          "name": "investor",
          "type": "address"
        },
        {
          "internalType": "uint256",
          "name": "projectId",
          "type": "uint256"
        },
        {
          "internalType": "uint256",
          "name": "amount",
          "type": "uint256"
        },
        {
          "internalType": "uint256",
          "name": "timestamp",
          "type": "uint256"
        }
      ],
      "stateMutability": "view",
      "type": "function"
    },
    {
      "inputs": [
        {
          "internalType": "uint256",
          "name": "",
          "type": "uint256"
        },
        {
          "internalType": "uint256",
          "name": "",
          "type": "uint256"
        }
      ],
      "name": "projectMilestones",
      "outputs": [
        {
          "internalType": "uint256",
          "name": "projectId",
          "type": "uint256"
        },
        {
          "internalType": "uint256",
          "name": "milestoneIndex",
          "type": "uint256"
        },
        {
          "internalType": "string",
          "name": "description",
          "type": "string"
        },
        {
          "internalType": "uint256",
          "name": "fundingAmount",
          "type": "uint256"
        },
        {
          "internalType": "uint256",
          "name": "targetDate",
          "type": "uint256"
        },
        {
          "internalType": "enum FundMyScience.MilestoneStatus",
          "name": "status",
          "type": "uint8"
        },
        {
          "internalType": "string",
          "name": "evidenceHash",
          "type": "string"
        },
        {
          "internalType": "uint256",
          "name": "approvedAt",
          "type": "uint256"
        }
      ],
      "stateMutability": "view",
      "type": "function"
    },
    {
      "inputs": [
        {
          "internalType": "uint256",
          "name": "",
          "type": "uint256"
        }
      ],
      "name": "projects",
      "outputs": [
        {
          "internalType": "uint256",
          "name": "id",
          "type": "uint256"
        },
        {
          "internalType": "address",
          "name": "researcher",
          "type": "address"
        },
        {
          "internalType": "string",
          "name": "title",
          "type": "string"
        },
        {
          "internalType": "string",
          "name": "ipfsHash",
          "type": "string"
        },
        {
          "internalType": "uint256",
          "name": "fundingGoal",
          "type": "uint256"
        },
        {
          "internalType": "uint256",
          "name": "fundsRaised",
          "type": "uint256"
        },
        {
          "internalType": "uint256",
          "name": "milestoneCount",
          "type": "uint256"
        },
        {
          "internalType": "enum FundMyScience.ProjectStatus",
          "name": "status",
          "type": "uint8"
        },
        {
          "internalType": "uint256",
          "name": "createdAt",
          "type": "uint256"
        }
      ],
      "stateMutability": "view",
      "type": "function"
    },
    {
      "inputs": [],
      "name": "renounceOwnership",
      "outputs": [],
      "stateMutability": "nonpayable",
      "type": "function"
    },
    {
      "inputs": [
        {
          "internalType": "uint256",
          "name": "projectId",
          "type": "uint256"
        },
        {
          "internalType": "uint256",
          "name": "milestoneIndex",
          "type": "uint256"
        },
        {
          "internalType": "string",
          "name": "evidenceHash",
          "type": "string"
        }
      ],
      "name": "submitMilestoneEvidence",
      "outputs": [],
      "stateMutability": "nonpayable",
      "type": "function"
    },
    {
      "inputs": [
        {
          "internalType": "address",
          "name": "newOwner",
          "type": "address"
        }
      ],
      "name": "transferOwnership",
      "outputs": [],
      "stateMutability": "nonpayable",
      "type": "function"
    },
    {
      "inputs": [],
      "name": "unpause",
      "outputs": [],
      "stateMutability": "nonpayable",
      "type": "function"
    },
    {
      "inputs": [
        {
          "internalType": "uint256",
          "name": "newFeePercentage",
          "type": "uint256"
        }
      ],
      "name": "updatePlatformFee",
      "outputs": [],
      "stateMutability": "nonpayable",
      "type": "function"
    },
    {
      "inputs": [
        {
          "internalType": "address",
          "name": "newWallet",
          "type": "address"
        }
      ],
      "name": "updatePlatformWallet",
      "outputs": [],
      "stateMutability": "nonpayable",
      "type": "function"
    },
    {
      "inputs": [
        {
          "internalType": "address",
          "name": "",
          "type": "address"
        },
        {
          "internalType": "uint256",
          "name": "",
          "type": "uint256"
        }
      ],
      "name": "userInvestments",
      "outputs": [
        {
          "internalType": "uint256",
          "name": "",
          "type": "uint256"
        }
      ],
      "stateMutability": "view",
      "type": "function"
    },
    {
      "inputs": [
        {
          "internalType": "address",
          "name": "",
          "type": "address"
        },
        {
          "internalType": "uint256",
          "name": "",
          "type": "uint256"
        }
      ],
      "name": "userProjects",
      "outputs": [
        {
          "internalType": "uint256",
          "name": "",
          "type": "uint256"
        }
      ],
      "stateMutability": "view",
      "type": "function"
    }
  ],
  "bytecode": "0x6080604052600160075560fa6008553480156200001b57600080fd5b5060405162002fbb38038062002fbb8339810160408190526200003e916200010d565b60016000556200004e3362000081565b6001805460ff60a01b19169055600980546001600160a01b0319166001600160a01b03929092169190911790556200013a565b600180546001600160a01b038381166001600160a01b0319831681179093556040519116919082907f8be0079c531659141344cd1fd0a4f28419497f9722a3daafe3b4186f6b6457e090600090a35050565b60006001600160a01b0382165b92915050565b620000f181620000d3565b8114620000fd57600080fd5b50565b8051620000e081620000e6565b600060208284031215620001245762000124600080fd5b600062000132848462000100565b949350505050565b612e71806200014a6000396000f3fe6080604052600436106101815760003560e01c80638da5cb5b116100d1578063cdd78cfc1161008a578063e935b7b111610064578063e935b7b114610489578063f0f3f2c81461049f578063f2fde38b146104bf578063fa2af9da146104df57600080fd5b8063cdd78cfc1461043e578063db2e21bc14610454578063e32e723c1461046957600080fd5b80638da5cb5b1461035d5780639244adcd14610384578063a284135b146103a4578063aa0b5988146103d1578063ada4ef30146103f1578063c52c5c881461041157600080fd5b80635b562fd81161013e578063715018a611610118578063715018a6146102f3578063817b3bc0146103085780638456cb5914610328578063898e8cfe1461033d57600080fd5b80635b562fd8146102855780635c975abb146102985780636cb0adba146102bf57600080fd5b8063107046bd1461018657806320913da5146101c45780632fa9c007146101e65780633a1339cf146102135780633f4ba83a1461024357806352766d8014610258575b600080fd5b34801561019257600080fd5b506101a66101a1366004611bfa565b6104ff565b6040516101bb99989796959493929190611ce4565b60405180910390f35b3480156101d057600080fd5b506101e46101df366004611d78565b610666565b005b3480156101f257600080fd5b50610206610201366004611dc9565b610980565b6040516101bb9190611deb565b34801561021f57600080fd5b5061023361022e366004611d78565b6109b1565b6040516101bb9493929190611df9565b34801561024f57600080fd5b506101e4610a01565b34801561026457600080fd5b50610278610273366004611bfa565b610a13565b6040516101bb9190611f60565b6101e4610293366004611bfa565b610c0f565b3480156102a457600080fd5b50600154600160a01b900460ff166040516101bb9190611f79565b3480156102cb57600080fd5b506102df6102da366004611d78565b610e84565b6040516101bb989796959493929190611f87565b3480156102ff57600080fd5b506101e4611002565b34801561031457600080fd5b5061020661032336600461222f565b611014565b34801561033457600080fd5b506101e46113de565b34801561034957600080fd5b506101e461035836600461233f565b6113ee565b34801561036957600080fd5b506001546001600160a01b03165b6040516101bb91906123aa565b34801561039057600080fd5b5061020661039f366004611dc9565b61154d565b3480156103b057600080fd5b506103c46103bf366004611bfa565b611569565b6040516101bb9190612465565b3480156103dd57600080fd5b506101e46103ec366004611bfa565b6115fb565b3480156103fd57600080fd5b506101e461040c366004612476565b61162a565b34801561041d57600080fd5b5061043161042c366004612476565b61167a565b6040516101bb91906124e9565b34801561044a57600080fd5b5061020660085481565b34801561046057600080fd5b506101e46116e6565b34801561047557600080fd5b50610431610484366004612476565b61177b565b34801561049557600080fd5b5061020660075481565b3480156104ab57600080fd5b506101a66104ba366004611bfa565b6117e5565b3480156104cb57600080fd5b506101e46104da366004612476565b611a1b565b3480156104eb57600080fd5b50600954610377906001600160a01b031681565b600260208190526000918252604090912080546001820154928201805491936001600160a01b0316929161053290612510565b80601f016020809104026020016040519081016040528092919081815260200182805461055e90612510565b80156105ab5780601f10610580576101008083540402835291602001916105ab565b820191906000526020600020905b81548152906001019060200180831161058e57829003601f168201915b5050505050908060030180546105c090612510565b80601f01602080910402602001604051908101604052809291908181526020018280546105ec90612510565b80156106395780601f1061060e57610100808354040283529160200191610639565b820191906000526020600020905b81548152906001019060200180831161061c57829003601f168201915b505050506004830154600584015460068501546007860154600890960154949592949193509160ff169089565b61066e611a52565b6000828152600260205260408120548391036106a55760405162461bcd60e51b815260040161069c9061256c565b60405180910390fd5b6106ad611a7c565b60008381526003602052604090205482106106da5760405162461bcd60e51b815260040161069c906125b0565b60008381526003602052604081208054849081106106fa576106fa6125c0565b6000918252602090912060089091020190506001600582015460ff16600381111561072757610727611c9b565b146107445760405162461bcd60e51b815260040161069c9061260a565b600084815260026020526040902060038201546005820154101561077a5760405162461bcd60e51b815260040161069c9061264e565b60058201805460ff191660021790554260078301556008546003830154600091612710916107a89190612674565b6107b291906126a9565b905060008184600301546107c691906126bd565b6009546040519192506000916001600160a01b039091169084906107e9906126d3565b60006040518083038185875af1925050503d8060008114610826576040519150601f19603f3d011682016040523d82523d6000602084013e61082b565b606091505b505090508061084c5760405162461bcd60e51b815260040161069c9061270f565b60018401546040516000916001600160a01b031690849061086c906126d3565b60006040518083038185875af1925050503d80600081146108a9576040519150601f19603f3d011682016040523d82523d6000602084013e6108ae565b606091505b50509050806108cf5760405162461bcd60e51b815260040161069c90612753565b60058601805460ff191660039081179091558601546040518a917f6e3fd8bb18eed6833ae758e07c361bf145ce27c88bdf6d5029ddabf188d72ca691610916918c91612763565b60405180910390a260018501546040518a917fd5eb304362ffe48045a3ae2ed7e0d2cfed08eb62f44dc87c694d42606e8205d991610963918c916001600160a01b0390911690889061277e565b60405180910390a250505050505061097b6001600055565b505050565b6005602052816000526040600020818154811061099c57600080fd5b90600052602060002001600091509150505481565b600460205281600052604060002081815481106109cd57600080fd5b600091825260209091206004909102018054600182015460028301546003909301546001600160a01b039092169450925084565b610a09611a52565b610a11611aa5565b565b606060036000838152602001908152602001600020805480602002602001604051908101604052809291908181526020016000905b82821015610c045783829060005260206000209060080201604051806101000160405290816000820154815260200160018201548152602001600282018054610a9090612510565b80601f0160208091040260200160405190810160405280929190818152602001828054610abc90612510565b8015610b095780601f10610ade57610100808354040283529160200191610b09565b820191906000526020600020905b815481529060010190602001808311610aec57829003601f168201915b5050509183525050600382810154602083015260048301546040830152600583015460609092019160ff1690811115610b4457610b44611c9b565b6003811115610b5557610b55611c9b565b8152602001600682018054610b6990612510565b80601f0160208091040260200160405190810160405280929190818152602001828054610b9590612510565b8015610be25780601f10610bb757610100808354040283529160200191610be2565b820191906000526020600020905b815481529060010190602001808311610bc557829003601f168201915b5050505050815260200160078201548152505081526020019060010190610a48565b505050509050919050565b610c17611a7c565b610c1f611af4565b600081815260026020526040812054829103610c4d5760405162461bcd60e51b815260040161069c9061256c565b60003411610c6d5760405162461bcd60e51b815260040161069c906127ee565b600160008381526002602052604090206007015460ff166003811115610c9557610c95611c9b565b14610cb25760405162461bcd60e51b815260040161069c9061282a565b600082815260026020526040902060010154336001600160a01b0390911603610ced5760405162461bcd60e51b815260040161069c90612886565b600082815260026020526040902060048101546005820154610d10903490612896565b1115610d2e5760405162461bcd60e51b815260040161069c906128dd565b34816005016000828254610d429190612896565b909155505060008381526004602081815260408084208151608081018352338082528185018a8152348386018181524260608601908152865460018082018955978c52898c2096519a0290950180546001600160a01b0319166001600160a01b03909a1699909917895591518886015590516002880155915160039096019590955584865260068452828620805492830181558652929094209093018690559151909185917f89728d542d77fad9fe42c7d1f032c2b85f64cf938d754183b0e95359fbfac8a191610e1291611deb565b60405180910390a38060040154816005015410610e755760078101805460ff1916600290811790915560405184917f35872be4c2085eaf9ca9a10d056eefec79968f825846792411ede75f331e939291610e6c91906128ed565b60405180910390a25b5050610e816001600055565b50565b60036020528160005260406000208181548110610ea057600080fd5b906000526020600020906008020160009150915050806000015490806001015490806002018054610ed090612510565b80601f0160208091040260200160405190810160405280929190818152602001828054610efc90612510565b8015610f495780601f10610f1e57610100808354040283529160200191610f49565b820191906000526020600020905b815481529060010190602001808311610f2c57829003601f168201915b5050506003840154600485015460058601546006870180549697939692955060ff909116935090610f7990612510565b80601f0160208091040260200160405190810160405280929190818152602001828054610fa590612510565b8015610ff25780601f10610fc757610100808354040283529160200191610ff2565b820191906000526020600020905b815481529060010190602001808311610fd557829003601f168201915b5050505050908060070154905088565b61100a611a52565b610a116000611b1e565b600061101e611af4565b6000851161103e5760405162461bcd60e51b815260040161069c9061293b565b825184511461105f5760405162461bcd60e51b815260040161069c9061297d565b81518451146110805760405162461bcd60e51b815260040161069c9061297d565b6000805b84518110156110c65784818151811061109f5761109f6125c0565b6020026020010151826110b29190612896565b9150806110be8161298d565b915050611084565b508581146110e65760405162461bcd60e51b815260040161069c906129ed565b60078054600091826110f78361298d565b9091555060408051610120810182528281523360208201529081018b9052606081018a905260808101899052600060a0820152875160c082015290915060e0810160018152426020918201526000838152600280835260409182902084518155928401516001840180546001600160a01b0319166001600160a01b03909216919091179055908301519082019061118e9082612a99565b50606082015160038201906111a39082612a99565b506080820151600482015560a0820151600582015560c0820151600682015560e082015160078201805460ff191660018360038111156111e5576111e5611c9b565b0217905550610100820151816008015590505060005b86518110156113725760036000838152602001908152602001600020604051806101000160405280848152602001838152602001898481518110611241576112416125c0565b60200260200101518152602001888481518110611260576112606125c0565b6020026020010151815260200187848151811061127f5761127f6125c0565b602002602001015181526020016000600381111561129f5761129f611c9b565b8152604080516020818101835260008083528185019290925292820181905284546001818101875595825290839020845160089092020190815591830151938201939093559181015190919060028201906112fa9082612a99565b50606082015181600301556080820151816004015560a08201518160050160006101000a81548160ff0219169083600381111561133957611339611c9b565b021790555060c082015160068201906113529082612a99565b5060e082015181600701555050808061136a9061298d565b9150506111fb565b50336000818152600560209081526040808320805460018101825590845291909220018390555182907f51d08cb6cfa640a387210fb69df925dfb70169ae7373f8ecd40b977b0c800d9a906113ca908d908c90612b5d565b60405180910390a398975050505050505050565b6113e6611a52565b610a11611b70565b60008381526002602052604090206001015483906001600160a01b031633146114295760405162461bcd60e51b815260040161069c90612bbf565b6000848152600260205260408120548591036114575760405162461bcd60e51b815260040161069c9061256c565b60008581526003602052604090205484106114845760405162461bcd60e51b815260040161069c906125b0565b60008581526003602052604081208054869081106114a4576114a46125c0565b6000918252602082206008909102019150600582015460ff1660038111156114ce576114ce611c9b565b146114eb5760405162461bcd60e51b815260040161069c90612c03565b600681016114f98582612a99565b5060058101805460ff1916600117905560405186907fa2efa9e8a9cb69da31069e845d86ddc3da31da23669a47f5ec5f60247d31a16b9061153d9088908890612c13565b60405180910390a2505050505050565b6006602052816000526040600020818154811061099c57600080fd5b606060046000838152602001908152602001600020805480602002602001604051908101604052809291908181526020016000905b82821015610c04576000848152602090819020604080516080810182526004860290920180546001600160a01b0316835260018082015484860152600282015492840192909252600301546060830152908352909201910161159e565b611603611a52565b6103e88111156116255760405162461bcd60e51b815260040161069c90612c5f565b600855565b611632611a52565b6001600160a01b0381166116585760405162461bcd60e51b815260040161069c90612c9c565b600980546001600160a01b0319166001600160a01b0392909216919091179055565b6001600160a01b0381166000908152600660209081526040918290208054835181840281018401909452808452606093928301828280156116da57602002820191906000526020600020905b8154815260200190600101908083116116c6575b50505050509050919050565b6116ee611a52565b60006117026001546001600160a01b031690565b6001600160a01b031647604051611718906126d3565b60006040518083038185875af1925050503d8060008114611755576040519150601f19603f3d011682016040523d82523d6000602084013e61175a565b606091505b5050905080610e815760405162461bcd60e51b815260040161069c90612ce0565b6001600160a01b0381166000908152600560209081526040918290208054835181840281018401909452808452606093928301828280156116da57602002820191906000526020600020908154815260200190600101908083116116c65750505050509050919050565b600080606080600080600080600080600260008c815260200190815260200160002060405180610120016040529081600082015481526020016001820160009054906101000a90046001600160a01b03166001600160a01b03166001600160a01b0316815260200160028201805461185c90612510565b80601f016020809104026020016040519081016040528092919081815260200182805461188890612510565b80156118d55780601f106118aa576101008083540402835291602001916118d5565b820191906000526020600020905b8154815290600101906020018083116118b857829003601f168201915b505050505081526020016003820180546118ee90612510565b80601f016020809104026020016040519081016040528092919081815260200182805461191a90612510565b80156119675780601f1061193c57610100808354040283529160200191611967565b820191906000526020600020905b81548152906001019060200180831161194a57829003601f168201915b5050509183525050600482015460208201526005820154604082015260068201546060820152600782015460809091019060ff1660038111156119ac576119ac611c9b565b60038111156119bd576119bd611c9b565b81526020016008820154815250509050806000015181602001518260400151836060015184608001518560a001518660c001518760e00151886101000151995099509950995099509950995099509950509193959799909294969850565b611a23611a52565b6001600160a01b038116611a495760405162461bcd60e51b815260040161069c90612d33565b610e8181611b1e565b6001546001600160a01b03163314610a115760405162461bcd60e51b815260040161069c90612d75565b600260005403611a9e5760405162461bcd60e51b815260040161069c90612db9565b6002600055565b611aad611bb3565b6001805460ff60a01b191690557f5db9ee0a495bf2e6ff9c91a7834c1ba4fdd244a5e8aa4e537bd38aeae4b073aa335b604051611aea91906123aa565b60405180910390a1565b600154600160a01b900460ff1615610a115760405162461bcd60e51b815260040161069c90612df0565b600180546001600160a01b038381166001600160a01b0319831681179093556040519116919082907f8be0079c531659141344cd1fd0a4f28419497f9722a3daafe3b4186f6b6457e090600090a35050565b611b78611af4565b6001805460ff60a01b1916600160a01b1790557f62e78cea01bee320cd4e420270b5ea74000d11b0c9f74754ebdbfc544b05a258611add3390565b600154600160a01b900460ff16610a115760405162461bcd60e51b815260040161069c90612e2b565b805b8114610e8157600080fd5b8035611bf481611bdc565b92915050565b600060208284031215611c0f57611c0f600080fd5b6000611c1b8484611be9565b949350505050565b805b82525050565b60006001600160a01b038216611bf4565b611c2581611c2b565b60005b83811015611c60578181015183820152602001611c48565b50506000910152565b6000611c73825190565b808452602084019350611c8a818560208601611c45565b601f01601f19169290920192915050565b634e487b7160e01b600052602160045260246000fd5b60048110610e8157610e81611c9b565b80611ccb81611cb1565b919050565b6000611bf482611cc1565b611c2581611cd0565b6101208101611cf3828c611c23565b611d00602083018b611c3c565b8181036040830152611d12818a611c69565b90508181036060830152611d268189611c69565b9050611d356080830188611c23565b611d4260a0830187611c23565b611d4f60c0830186611c23565b611d5c60e0830185611cdb565b611d6a610100830184611c23565b9a9950505050505050505050565b60008060408385031215611d8e57611d8e600080fd5b6000611d9a8585611be9565b9250506020611dab85828601611be9565b9150509250929050565b611bde81611c2b565b8035611bf481611db5565b60008060408385031215611ddf57611ddf600080fd5b6000611d9a8585611dbe565b60208101611bf48284611c23565b60808101611e078287611c3c565b611e146020830186611c23565b611e216040830185611c23565b611e2e6060830184611c23565b95945050505050565b8051600090610100840190611e4c8582611c23565b506020830151611e5f6020860182611c23565b5060408301518482036040860152611e778282611c69565b9150506060830151611e8c6060860182611c23565b506080830151611e9f6080860182611c23565b5060a0830151611eb260a0860182611cdb565b5060c083015184820360c0860152611eca8282611c69565b91505060e0830151611edf60e0860182611c23565b509392505050565b6000611ef38383611e37565b9392505050565b6000611f04825190565b80845260208401935083602082028501611f1e8560200190565b8060005b85811015611f535784840389528151611f3b8582611ee7565b94506020830160209a909a0199925050600101611f22565b5091979650505050505050565b60208082528101611ef38184611efa565b801515611c25565b60208101611bf48284611f71565b6101008101611f96828b611c23565b611fa3602083018a611c23565b8181036040830152611fb58189611c69565b9050611fc46060830188611c23565b611fd16080830187611c23565b611fde60a0830186611cdb565b81810360c0830152611ff08185611c69565b9050611fff60e0830184611c23565b9998505050505050505050565b634e487b7160e01b600052604160045260246000fd5b601f19601f830116810181811067ffffffffffffffff821117156120485761204861200c565b6040525050565b600061205a60405190565b9050611ccb8282612022565b600067ffffffffffffffff8211156120805761208061200c565b601f19601f83011660200192915050565b82818337506000910152565b60006120b06120ab84612066565b61204f565b9050828152602081018484840111156120cb576120cb600080fd5b611edf848285612091565b600082601f8301126120ea576120ea600080fd5b8135611c1b84826020860161209d565b600067ffffffffffffffff8211156121145761211461200c565b5060209081020190565b600061212c6120ab846120fa565b8381529050602080820190840283018581111561214b5761214b600080fd5b835b8181101561218c57803567ffffffffffffffff81111561216f5761216f600080fd5b80860161217c89826120d6565b855250506020928301920161214d565b5050509392505050565b600082601f8301126121aa576121aa600080fd5b8135611c1b84826020860161211e565b60006121c86120ab846120fa565b838152905060208082019084028301858111156121e7576121e7600080fd5b835b8181101561218c57806121fc8882611be9565b845250602092830192016121e9565b600082601f83011261221f5761221f600080fd5b8135611c1b8482602086016121ba565b60008060008060008060c0878903121561224b5761224b600080fd5b863567ffffffffffffffff81111561226557612265600080fd5b61227189828a016120d6565b965050602087013567ffffffffffffffff81111561229157612291600080fd5b61229d89828a016120d6565b95505060406122ae89828a01611be9565b945050606087013567ffffffffffffffff8111156122ce576122ce600080fd5b6122da89828a01612196565b935050608087013567ffffffffffffffff8111156122fa576122fa600080fd5b61230689828a0161220b565b92505060a087013567ffffffffffffffff81111561232657612326600080fd5b61233289828a0161220b565b9150509295509295509295565b60008060006060848603121561235757612357600080fd5b60006123638686611be9565b935050602061237486828701611be9565b925050604084013567ffffffffffffffff81111561239457612394600080fd5b6123a0868287016120d6565b9150509250925092565b60208101611bf48284611c3c565b805160808301906123c98482611c3c565b5060208201516123dc6020850182611c23565b5060408201516123ef6040850182611c23565b5060608201516124026060850182611c23565b50505050565b600061241483836123b8565b505060800190565b6000612426825190565b80845260209384019383018060005b8381101561245a5781516124498882612408565b975060208301925050600101612435565b509495945050505050565b60208082528101611ef3818461241c565b60006020828403121561248b5761248b600080fd5b6000611c1b8484611dbe565b60006124a38383611c23565b505060200190565b60006124b5825190565b80845260209384019383018060005b8381101561245a5781516124d88882612497565b9750602083019250506001016124c4565b60208082528101611ef381846124ab565b634e487b7160e01b600052602260045260246000fd5b60028104600182168061252457607f821691505b602082108103612536576125366124fa565b50919050565b6016815260006020820175141c9bda9958dd08191bd95cc81b9bdd08195e1a5cdd60521b815291505b5060200190565b60208082528101611bf48161253c565b601781526000602082017f496e76616c6964206d696c6573746f6e6520696e64657800000000000000000081529150612565565b60208082528101611bf48161257c565b634e487b7160e01b600052603260045260246000fd5b601a81526000602082017f4d696c6573746f6e65206973206e6f7420696e2072657669657700000000000081529150612565565b60208082528101611bf4816125d6565b601981526000602082017f496e73756666696369656e742066756e6473207261697365640000000000000081529150612565565b60208082528101611bf48161261a565b634e487b7160e01b600052601160045260246000fd5b81810280821583820485141761268c5761268c61265e565b5092915050565b634e487b7160e01b600052601260045260246000fd5b6000826126b8576126b8612693565b500490565b81810381811115611bf457611bf461265e565b90565b600081611bf4565b601c81526000602082017f506c6174666f726d20666565207472616e73666572206661696c65640000000081529150612565565b60208082528101611bf4816126db565b601981526000602082017f52657365617263686572207061796d656e74206661696c65640000000000000081529150612565565b60208082528101611bf48161271f565b604081016127718285611c23565b611ef36020830184611c23565b6060810161278c8286611c23565b6127996020830185611c3c565b611c1b6040830184611c23565b602881526000602082017f496e766573746d656e7420616d6f756e74206d75737420626520677265617465815267072207468616e20360c41b602082015291505b5060400190565b60208082528101611bf4816127a6565b601581526000602082017450726f6a656374206973206e6f742061637469766560581b81529150612565565b60208082528101611bf4816127fe565b602f81526000602082017f52657365617263686572732063616e6e6f7420696e7665737420696e2074686581526e6972206f776e2070726f6a6563747360881b602082015291506127e7565b60208082528101611bf48161283a565b80820180821115611bf457611bf461265e565b601f81526000602082017f496e766573746d656e7420657863656564732066756e64696e6720676f616c0081529150612565565b60208082528101611bf4816128a9565b60208101611bf48284611cdb565b602381526000602082017f46756e64696e6720676f616c206d75737420626520677265617465722074686181526206e20360ec1b602082015291506127e7565b60208082528101611bf4816128fb565b60208082527f4d696c6573746f6e6520617272617973206c656e677468206d69736d6174636891019081526000612565565b60208082528101611bf48161294b565b600060001982036129a0576129a061265e565b5060010190565b602981526000602082017f4d696c6573746f6e652066756e64696e67206d75737420657175616c2070726f8152681a9958dd0819dbd85b60ba1b602082015291506127e7565b60208082528101611bf4816129a7565b6000611bf46126d08381565b612a12836129fd565b815460001960089490940293841b1916921b91909117905550565b600061097b818484612a09565b81811015612a5557612a4d600082612a2d565b600101612a3a565b5050565b601f82111561097b576000818152602090206020601f85010481016020851015612a805750805b612a926020601f860104830182612a3a565b5050505050565b815167ffffffffffffffff811115612ab357612ab361200c565b612abd8254612510565b612ac8828285612a59565b6020601f831160018114612afc5760008415612ae45750858201515b600019600886021c1981166002860217865550612b55565b600085815260208120601f198616915b82811015612b2c5788850151825560209485019460019092019101612b0c565b86831015612b485784890151600019601f89166008021c191682555b6001600288020188555050505b505050505050565b60408082528101612b6e8185611c69565b9050611ef36020830184611c23565b602581526000602082017f4f6e6c792070726f6a65637420726573656172636865722063616e2063616c6c815264207468697360d81b602082015291506127e7565b60208082528101611bf481612b7d565b601881526000602082017f4d696c6573746f6e65206973206e6f742070656e64696e67000000000000000081529150612565565b60208082528101611bf481612bcf565b60408101612c218285611c23565b8181036020830152611c1b8184611c69565b60158152600060208201744665652063616e6e6f74206578636565642031302560581b81529150612565565b60208082528101611bf481612c33565b6016815260006020820175496e76616c69642077616c6c6574206164647265737360501b81529150612565565b60208082528101611bf481612c6f565b601b81526000602082017f456d657267656e6379207769746864726177616c206661696c6564000000000081529150612565565b60208082528101611bf481612cac565b602681526000602082017f4f776e61626c653a206e6577206f776e657220697320746865207a65726f206181526564647265737360d01b602082015291506127e7565b60208082528101611bf481612cf0565b60208082527f4f776e61626c653a2063616c6c6572206973206e6f7420746865206f776e657291019081526000612565565b60208082528101611bf481612d43565b601f81526000602082017f5265656e7472616e637947756172643a207265656e7472616e742063616c6c0081529150612565565b60208082528101611bf481612d85565b601081526000602082016f14185d5cd8589b194e881c185d5cd95960821b81529150612565565b60208082528101611bf481612dc9565b601481526000602082017314185d5cd8589b194e881b9bdd081c185d5cd95960621b81529150612565565b60208082528101611bf481612e0056fea26469706673582212209785f18e3950121243581309006ad03fd93060d8718e5c50290d8f378d3f41d864736f6c63430008130033",
  "linkReferences": {},
  "deployedLinkReferences": {}
}